:100000000C9446000C9465000C9465000C946500FB
:100010000C9465000C9465000C9465000C946500CC
:100020000C9465000C9465000C9465000C946500BC
:100030000C9465000C9465000C9465000C946500AC
:100040000C9465000C9465000C9465000C9465009C
:100050000C9465000C9465000C9465000C9465008C
:100060000C9465000C9465000C9465000C9465007C
:100070000C9465000C9465000C9465000C9465006C
:100080000C9465000C9465000C94650011241FBE4F
:10009000CFEFD0E4DEBFCDBF11E0A0E0B1E0E8E4F7
:1000A000F6E000E00BBF02C007900D92AE30B10742
:1000B000D9F721E0AEE0B1E001C01D92A831B2074E
:1000C000E1F70E9480010C9422030C940000CF936E
:1000D000C82F8A3019F48DE00E9467008091C0001B
:1000E00085FFFCCFC093C60080E090E0CF910895DB
:1000F000CF92DF92EF92FF926B017C0160910E0133
:1001000070910F018091100190911101A70196014A
:100110000E948E01882309F458C020E030E0A90134
:10012000C701B6010E948E01811106C0E1E9F0E02D
:1001300080818870808305C0E1E9F0E08081836080
:10014000808328E539E344E75FE3C701B6010E94F5
:100150008E0188233CF48FEF9FEF9093990080935A
:10016000980027C020E034E244EF56E4C701B6010E
:100170000E94B00218162CF4109299001092980068
:1001800018C020E030E040E053E4C701B6010E940F
:10019000B5029B01AC0160E074E284EF9AE40E9436
:1001A00093010E9405026150710970939900609358
:1001B00098001092950010929400C0920E01D09277
:1001C0000F01E0921001F0921101FF90EF90DF908B
:1001D000CF90089580E4809390008BE0809391000D
:1001E00060E070E0CB010E947800089510929000CA
:1001F00010929100089580B18095877080931201CC
:1002000020B191E0922791709093170120B1209531
:1002100022702093150130B130953470309316015F
:1002200040911301509114014130510579F038F09B
:1002300042305105D9F04330510541F12DC041E024
:1002400050E0509314014093130126C0882339F0E5
:1002500042E050E050931401409313011DC041E06F
:1002600050E0509314014093130116C0882339F0D5
:1002700042E050E050931401409313010DC043E05D
:1002800050E0509314014093130106C041E050E048
:1002900050931401409313014091130150911401A4
:1002A0004230510561F04330510521F14130510593
:1002B00031F560E070E0CB010E9478000895913044
:1002C00039F464EA70ED82E893E40E9478000895BE
:1002D000223039F46BE774ED82E993E40E947800F0
:1002E0000895343061F464EA70ED84EA93E40E9486
:1002F0007800089560E070E0CB010E9478000895D6
:1003000011B88FEF82B984B915B810921401109208
:1003100013010E94EA000E94FB00FDCF0E943B02F5
:1003200008F481E008950E94A7010C9476020E94CF
:100330006F0258F00E94680240F029F45F3F29F0F4
:100340000C945F0251110C94AA020C9465020E9455
:10035000870268F39923B1F3552391F3951B550B4D
:10036000BB27AA2762177307840738F09F5F5F4F88
:10037000220F331F441FAA1FA9F335D00E2E3AF0C7
:10038000E0E832D091505040E695001CCAF72BD0DF
:10039000FE2F29D0660F771F881FBB1F2617370730
:1003A0004807AB07B0E809F0BB0B802DBF01FF2762
:1003B00093585F4F3AF09E3F510578F00C945F02DE
:1003C0000C94AA025F3FE4F3983ED4F386957795A8
:1003D0006795B795F7959F5FC9F7880F911D96951B
:1003E000879597F90895E1E0660F771F881FBB1F77
:1003F000621773078407BA0720F0621B730B840B24
:10040000BA0BEE1F88F7E09508950E940C026894DD
:10041000B1110C94AA0208950E948F0288F09F5790
:1004200098F0B92F9927B751B0F0E1F0660F771F18
:10043000881F991F1AF0BA95C9F714C0B13091F00E
:100440000E94A902B1E008950C94A902672F782FA9
:100450008827B85F39F0B93FCCF3869577956795D3
:10046000B395D9F73EF490958095709561957F4F3F
:100470008F4F9F4F0895990F0008550FAA0BE0E882
:10048000FEEF16161706E807F907C0F01216130656
:10049000E407F50798F0621B730B840B950B39F496
:1004A0000A2661F0232B242B252B21F408950A26FC
:1004B00009F4A140A6958FEF811D811D089597F93C
:1004C0009F6780E870E060E008959FEF80EC0895FA
:1004D00000240A9416161706180609060895002423
:1004E0000A9412161306140605060895092E03949D
:1004F000000C11F4882352F0BB0F40F4BF2B11F411
:1005000060FF04C06F5F7F4F8F4F9F4F089557FD6F
:100510009058440F551F59F05F3F71F04795880F71
:1005200097FB991F61F09F3F79F087950895121608
:1005300013061406551FF2CF4695F1DF08C01616B4
:1005400017061806991FF1CF869571056105089465
:100550000895E894BB2766277727CB0197F908957C
:100560000E943B0208F48FEF08950E94C8020C9489
:1005700076020E94680238F00E946F0220F09523F4
:1005800011F00C945F020C94650211240C94AA02E1
:100590000E94870270F3959FC1F3950F50E0551F9D
:1005A000629FF001729FBB27F00DB11D639FAA27C8
:1005B000F00DB11DAA1F649F6627B00DA11D661F17
:1005C000829F2227B00DA11D621F739FB00DA11D38
:1005D000621F839FA00D611D221F749F3327A00DF2
:1005E000611D231F849F600D211D822F762F6A2F8E
:1005F00011249F5750409AF0F1F088234AF0EE0FF3
:10060000FF1FBB1F661F771F881F91505040A9F71F
:100610009E3F510580F00C945F020C94AA025F3F4C
:10062000E4F3983ED4F3869577956795B795F7955B
:10063000E7959F5FC1F7FE2B880F911D96958795D3
:0806400097F90895F894FFCF2B
:0E06480000000002000000006700000000003B
:00000001FF
