:100000000C9446000C9465000C9465000C946500FB
:100010000C9465000C9465000C9465000C946500CC
:100020000C9465000C9465000C9465000C946500BC
:100030000C9465000C94A3000C9465000C9465006E
:100040000C9465000C9465000C9465000C9465009C
:100050000C9465000C9465000C9465000C9465008C
:100060000C9465000C9465000C9465000C9465007C
:100070000C9465000C9465000C9465000C9465006C
:100080000C9465000C9465000C94650011241FBE4F
:10009000CFEFD0E4DEBFCDBF11E0A0E0B1E0E4E1FE
:1000A000F8E000E00BBF02C007900D92A63CB1073C
:1000B000D9F721E0A6ECB1E001C01D92AF3DB20737
:1000C000E1F70E9458020C9408040C940000CF93AE
:1000D000C82F8A3019F48DE00E9467008091C0001B
:1000E00085FFFCCFC093C60080E090E0CF910895DB
:1000F0008BE0809381008DE790E09093890080935E
:10010000880082E080936F00109285001092840036
:100110008091B4019091B501A091B601B091B70161
:100120008093D0019093D101A093D201B093D301D9
:100130008FB780688FBF089510928100089581E085
:100140008093D40108951F920F920FB60F9211243D
:100150000BB60F922F933F934F935F936F937F93C1
:100160008F939F93AF93BF93EF93FF938091D001B1
:100170009091D101A091D201B091D3010197A10931
:10018000B1098093D0019093D101A093D201B09393
:10019000D301892B8A2B8B2B91F40E949F00809195
:1001A000B4019091B501A091B601B091B7018093CF
:1001B000D0019093D101A093D201B093D301FF91CC
:1001C000EF91BF91AF919F918F917F916F915F91CF
:1001D0004F913F912F910F900BBE0F900FBE0F903C
:1001E0001F9018956093B4017093B5018093B60188
:1001F0009093B7016093D0017093D1018093D201A5
:100200009093D3010895CF92DF92EF92FF926B010A
:100210007C016091D5017091D6018091D7019091B8
:10022000D801A70196010E947402882309F458C0DE
:1002300020E030E0A901C701B6010E9474028111DB
:1002400006C0E1E9F0E080818870808305C0E1E9C3
:10025000F0E080818360808328E539E344E75FE351
:10026000C701B6010E94740288233CF48FEF9FEF10
:10027000909399008093980027C020E034E244EFE7
:1002800056E4C701B6010E94960318162CF410928A
:1002900099001092980018C020E030E040E053E44C
:1002A000C701B6010E949B039B01AC0160E074E2B0
:1002B00084EF9AE40E9479020E94EB026150710976
:1002C000709399006093980010929500109294009A
:1002D000C092D501D092D601E092D701F092D80118
:1002E000FF90EF90DF90CF90089580E4809390008E
:1002F0008BE08093910060E070E0CB010E940301ED
:1003000008951092900010929100089590B19095E8
:1003100097709093D90120B181E0822781708093FA
:10032000DE0120B1209522702093DC0120B12095C0
:1003300024702093DD012091DA013091DB0122301D
:10034000310551F138F42115310579F021303105AD
:1003500099F080C02430310509F444C008F45BC032
:100360002530310509F467C075C081E090E09093B5
:10037000DB018093DA016EC0813039F482E090E0D5
:100380009093DB018093DA0165C081E090E0909367
:10039000DB018093DA015EC02091CF0130E0E09173
:1003A000CE01F0E0E050FF4F8081082E000C990B49
:1003B000821793073CF082E090E09093DB018093FA
:1003C000DA0148C0821793070CF044C08091CD0138
:1003D0008F5F8093CD0184E090E09093DB01809368
:1003E000DA0138C08091CD01843160F48091CE0172
:1003F0008F5F8093CE0182E090E09093DB01809349
:10040000DA0128C0843130F183E090E09093DB0181
:100410008093DA011FC0913039F485E090E0909329
:10042000DB018093DA0116C083E090E09093DB015A
:100430008093DA010FC0813039F485E090E0909329
:10044000DB018093DA0106C081E090E09093DB014C
:100450008093DA018091DA019091DB01823091057D
:1004600061F084309105F1F0019709F51092CF0108
:100470001092CE011092CD010895E091CE01F0E0EE
:10048000EE0FFF1FEE0FFF1FEC5DFE4F60817181CD
:10049000828193810E9403018091CF018F5F8093BD
:1004A000CF01089560E070E0CB010E940301089540
:1004B00011B88FEF82B984B915B81092DB01109290
:1004C000DA010E94750164E670E080E090E00E942D
:1004D000F2000E9478000E9486018091D401882356
:1004E000E1F31092D401F7CF0E94210308F481E0D8
:1004F00008950E948D020C945C030E94550358F0ED
:100500000E944E0340F029F45F3F29F00C9445030C
:1005100051110C9490030C944B030E946D0368F3EB
:100520009923B1F3552391F3951B550BBB27AA27AC
:1005300062177307840738F09F5F5F4F220F331FE6
:10054000441FAA1FA9F335D00E2E3AF0E0E832D0AE
:1005500091505040E695001CCAF72BD0FE2F29D0B1
:10056000660F771F881FBB1F261737074807AB0783
:10057000B0E809F0BB0B802DBF01FF2793585F4FF8
:100580003AF09E3F510578F00C9445030C9490038B
:100590005F3FE4F3983ED4F3869577956795B795DA
:1005A000F7959F5FC9F7880F911D9695879597F9E5
:1005B0000895E1E0660F771F881FBB1F621773075E
:1005C0008407BA0720F0621B730B840BBA0BEE1F73
:1005D00088F7E09508950E94F2026894B1110C9496
:1005E000900308950E94750388F09F5798F0B92FE3
:1005F0009927B751B0F0E1F0660F771F881F991F58
:100600001AF0BA95C9F714C0B13091F00E948F0367
:10061000B1E008950C948F03672F782F8827B85F77
:1006200039F0B93FCCF3869577956795B395D9F7AF
:100630003EF490958095709561957F4F8F4F9F4FB9
:100640000895990F0008550FAA0BE0E8FEEF161663
:100650001706E807F907C0F012161306E407F507B6
:1006600098F0621B730B840B950B39F40A2661F02A
:10067000232B242B252B21F408950A2609F4A140CD
:10068000A6958FEF811D811D089597F99F6780E8DA
:1006900070E060E008959FEF80EC089500240A94D4
:1006A0001616170618060906089500240A9412164D
:1006B0001306140605060895092E0394000C11F480
:1006C000882352F0BB0F40F4BF2B11F460FF04C02D
:1006D0006F5F7F4F8F4F9F4F089557FD9058440F86
:1006E000551F59F05F3F71F04795880F97FB991F91
:1006F00061F09F3F79F0879508951216130614064E
:10070000551FF2CF4695F1DF08C0161617061806DA
:10071000991FF1CF86957105610508940895E894B5
:10072000BB2766277727CB0197F908950E942103FD
:1007300008F48FEF08950E94AE030C945C030E94AE
:100740004E0338F00E94550320F0952311F00C94CD
:1007500045030C944B0311240C9490030E946D03E9
:1007600070F3959FC1F3950F50E0551F629FF00104
:10077000729FBB27F00DB11D639FAA27F00DB11D1D
:10078000AA1F649F6627B00DA11D661F829F2227A6
:10079000B00DA11D621F739FB00DA11D621F839F2D
:1007A000A00D611D221F749F3327A00D611D231F03
:1007B000849F600D211D822F762F6A2F11249F5751
:1007C00050409AF0F1F088234AF0EE0FFF1FBB1F54
:1007D000661F771F881F91505040A9F79E3F510513
:1007E00080F00C9445030C9490035F3FE4F3983E33
:1007F000D4F3869577956795B795F795E7959F5FBD
:10080000C1F7FE2B880F911D9695879597F908954E
:04081000F894FFCF8A
:100814000A323219323232320A320A321A320A0AAD
:100824000A0A0A1A32191919320A19320A190A0A51
:1008340019321900A4D08243142E484333B387439A
:10084400142E484366E6F643142E4843ECD105447F
:1008540066E6F643719DAE43A4D0A443A4D082437C
:10086400A4D0824366E6F64366E6F643142E484374
:10087400A4D08243A4D0A443719DAE4366E6F6435C
:10088400719DAE43142E4843142E4843A4D0824392
:1008940033B3874366E6F643142E4843A4D0A443F7
:1008A400719DAE43719DAE43A4D0A443142E48431E
:1008B400A4D0824333B38743142E484366E6F643F9
:1008C400142E484301000000000000020000000054
:0608D400670000000000B7
:00000001FF
